:020000040800F2
:1000000000800120251100086D0F00087B0F0008FB
:10001000810F0008870F00088D0F00080000000006
:10002000000000000000000000000000930F000826
:10003000A10F000800000000AF0F0008BD0F00086E
:100040007511000875110008751100087511000878
:100050007511000875110008791000087511000865
:10006000751100087511000875110008C90F000806
:100070007511000875110008751100087511000848
:100080007511000875110008751100087511000838
:100090007511000875110008751100087511000828
:1000A0007511000875110008751100087511000818
:1000B0007511000875110008751100087511000808
:1000C00075110008751100087511000875110008F8
:1000D00075110008E50F000875110008751100087A
:1000E00075110008751100087511000875110008D8
:1000F00075110008751100087511000875110008C8
:1001000075110008751100087511000875110008B7
:1001100075110008751100082110000875110008FC
:100120007511000875110008751100087511000897
:100130007511000875110008751100087511000887
:100140007511000875110008751100087511000877
:100150007511000875110008751100087511000867
:100160007511000875110008751100087511000857
:1001700075110008751100087511000800000000D5
:0801800075110008751100085B
:1001880010B5054C237833B9044B13B10448AFF3C9
:1001980000800123237010BD0C0000200000000027
:1001A800805D000808B5034B1BB103490348AFF352
:1001B800008008BD0000000010000020805D0008DD
:1001C80053B94AB9002908BF00281CBF4FF0FF31B6
:1001D8004FF0FF3000F072B9ADF1080C6DE904CEB4
:1001E80000F006F8DDF804E0DDE9022304B070470A
:1001F8002DE9F047089E04468846002B4BD18A42D9
:10020800154667D9B2FA82F24AB1C2F1200701FA5B
:1002180002F320FA07F7954047EA030894404FEAAB
:10022800154E230CB8FBFEF71FFA85FC0EFB17884A
:1002380043EA084307FB0CF1994209D9EB1807F187
:10024800FF3080F01B81994240F21881023F2B4415
:100258005B1AA4B2B3FBFEF00EFB103344EA03446E
:1002680000FB0CFCA44509D92C1900F1FF3380F0E0
:100278000781A44540F2048102382C4440EA074033
:10028800A4EB0C0400271EB1D4400023C6E90043A8
:100298003946BDE8F0878B4209D9002E00F0EB8083
:1002A8000027C6E9000138463946BDE8F087B3FAA9
:1002B80083F7002F47D18B4202D3824200F2FA80A3
:1002C800841A61EB030301209846002EE0D0C6E9AA
:1002D8000048DDE702B9FFDEB2FA82F2002A40F0F8
:1002E8008F80491B4FEA154E1FFA85F80127B1FB8D
:1002F800FEFC230C0EFB1C1143EA014308FB0CF126
:10030800994207D9EB180CF1FF3002D2994200F25A
:10031800CD808446591AA3B2B1FBFEF00EFB10142F
:1003280043EA044408FB00F8A04507D92C1900F15A
:10033800FF3302D2A04500F2B6801846A4EB0804A9
:1003480040EA0C409FE7C7F1200CBB4022FA0CFEA4
:100358004EEA030E01FA07F420FA0CF521FA0CF321
:100368004FEA1E482543B3FBF8F92C0C08FB193358
:100378001FFA8EFA44EA034309FB0AF49C4202FA84
:1003880007F200FA07F10BD91EEB030309F1FF305E
:1003980080F087809C4240F28480A9F1020973446E
:1003A8001B1BADB2B3FBF8F008FB103345EA03445E
:1003B80000FB0AFAA24508D91EEB040400F1FF333A
:1003C8006BD2A24569D90238744440EA0940A0FBBF
:1003D8000289A4EB0A044C45C2464B4654D351D07B
:1003E800002E69D0B1EB0A0564EB030404FA0CFC97
:1003F800FD40FC404CEA0505C6E90054002747E7E4
:10040800C2F1200320FA03F7954001FA02F021FA1D
:1004180003F34FEA154E3843010CB3FBFEF71FFAFE
:1004280085F80EFB173341EA034107FB08F38B42BB
:1004380004FA02F407D9691807F1FF3C2FD28B425E
:100448002DD9023F2944CB1A81B2B3FBFEF00EFB33
:10045800103341EA034100FB08F38B4207D96918BE
:1004680000F1FF3C17D28B4215D902382944C91A2A
:1004780040EA07473BE73746304609E70746E7E6DD
:100488001846FBE64145ABD2B8EB020A69EB0E020F
:1004980001381346A4E76046E9E7184695E767463A
:1004A800D1E781467CE702382C4447E7ACF1020CDF
:1004B8002B442FE7384608E73746E9E6704700BF80
:1004C80080B582B000AF00F052FE00F0AFF900F046
:1004D80081FB00F061FB00F023FA00F0BFFA00F0A6
:1004E800F5FA00F029FB03221549164801F0A8FA8D
:1004F800154804F02FFA144804F056FA134B1B78E9
:10050800DBB2012B51D10023FB7133E0FB79012BC6
:100518000CD0022B22D0002B29D10D4B1B881A4658
:10052800074B19880B4B23F8121020E0084B1B8847
:100538001A46034B5988084B23F8121017E000BFDE
:100548003820002054400020806100202A0000202C
:100558002800002038000020542000209C4B1B88D5
:100568001A469C4B99889C4B23F8121000BFFB79C4
:100578000133FB71FB79032BC8D9954B1B880133D9
:100588009AB2934B1A80924B1B8840F6FF729342A3
:1005980005D18F4B00221A80904B01221A70904B84
:1005A80000221A70062002F038F98C4B1B78012BB8
:1005B8005AD18C4BDB6903F08003002B54D08A4B53
:1005C8001B78012B50D1874B1B6803F00803002BC5
:1005D80005D1844B1B68834A43F008031360834B9F
:1005E8001B881A46824B33F812301B119BB2DBB2C0
:1005F8009AB2804B1A807B4B7E4A12881A8500BFBC
:10060800784BDB6903F08003002BF9D0774B1B880C
:100618001A46774B33F812301B019BB2DBB29AB201
:10062800754B1A806F4B744A12881A856F4B1B885A
:1006380001339AB26D4B1A806C4B1B8840F6FF72DF
:10064800934211D1674B1B68664A23F00803136075
:10065800664B00221A80614B1B780133DAB25F4B7C
:100668001A70614B00221A705C4B1B78022B5AD10E
:100678005C4BDB6903F08003002B54D05A4B1B788A
:10068800012B50D1574B1B6803F00803002B05D1F1
:10069800544B1B68534A43F008031360534B1B88A1
:1006A8001A46564B33F812301B119BB2DBB29AB282
:1006B800504B1A804B4B4F4A12881A8500BF494B42
:1006C800DB6903F08003002BF9D0484B1B881A46DE
:1006D8004A4B33F812301B019BB2DBB29AB2464B3D
:1006E8001A80404B444A12881A85404B1B880133B4
:1006F8009AB23E4B1A803D4B1B8840F6FF729342DC
:1007080011D1384B1B68374A23F008031360374B65
:1007180000221A80314B1B780133DAB22F4B1A7042
:10072800314B00221A702D4B1B78032B7FF4E6AE59
:100738002C4BDB6903F08003002B3FF4DFAE2A4B20
:100748001B78012B7FF4DAAE264B1B6803F00803F5
:10075800002B05D1234B1B68224A43F00803136082
:10076800224B1B881A461C4B33F812301B119BB2C4
:10077800DBB29AB21F4B1A801A4B1E4A12881A858E
:1007880000BF184BDB6903F08003002BF9D0174B2F
:100798001B881A46104B33F812301B019BB2DBB290
:1007A8009AB2154B1A800F4B134A12881A850F4BB1
:1007B8001B8801339AB20D4B1A800C4B1B8840F6EC
:1007C800FF7293427FF49AAE064B1B6818E000BF95
:1007D8002800002038200020804100202B00002025
:1007E8002A00002000380140320000202C000020A0
:1007F800380000202E000020300000205420002067
:10080800064A23F008031360054B00221A80054BA3
:1008180000221A70044B01221A706FE6003801405A
:100828002C000020320000203300002080B5B8B032
:1008380000AF07F19C0344220021184605F094FA02
:1008480007F1880300221A605A609A60DA601A6118
:100858003B4688220021184605F086FA0223C7F88D
:100868009C304FF48073C7F8A8301023C7F8AC3019
:100878000223C7F8C4300223C7F8C8300123C7F8D9
:10088800CC300A23C7F8D0300723C7F8D430022366
:10089800C7F8D8300223C7F8DC3007F19C031846A4
:1008A80002F092FD0346002B01D000F009FA0F2355
:1008B800C7F888300323C7F88C300023C7F8903076
:1008C8000023C7F894300023C7F8983007F188034D
:1008D8000421184603F05EF90346002B01D000F00E
:1008E800EFF944F201033B600023BB634FF0405330
:1008F800BB673B46184603F051FB0346002B01D06B
:1009080000F0DEF94FF4007002F008FD0346002BFA
:1009180001D000F0D5F900BFE037BD4680BD00002A
:1009280080B58AB000AF07F11C0300221A605A6034
:100938009A603B1D00221A605A609A60DA601A6158
:100948005A61414B414A1A603F4B00225A603E4B64
:1009580000229A603C4B0022DA603B4B01221A616C
:10096800394B04225A61384B00221A76364B002242
:100978005A76354B0322DA61334B002283F8202064
:10098800314B01225A62304B00229A622E4B0022D0
:10099800DA622D4B002283F830202B4B4FF4805223
:1009A8005A63294B002283F83820274800F03AFE82
:1009B8000346002B01D000F083F90023FB6107F107
:1009C8001C031946204801F085FD0346002B01D081
:1009D80000F076F91E4B7B600623BB600023FB60AA
:1009E8007F233B6104237B610023BB613B1D1946C8
:1009F800154801F0F7F80346002B01D000F060F924
:100A0800144B7B600C23BB603B1D19460E4801F05C
:100A1800E9F80346002B01D000F052F90E4B7B6039
:100A28001223BB603B1D1946074801F0DBF803465B
:100A3800002B01D000F044F9034800F047FF00BF45
:100A48002837BD4680BD00BF544000200000045038
:100A5800400020198000501D0001802180B58AB017
:100A680000AF3B1D24220021184605F07DF9154BE7
:100A7800154A1A60134801F0EAFE0346002B01D01C
:100A880000F01EF900237B600023BB600023FB609D
:100A980000233B6100237B613B1D10221946094856
:100AA80001F0F7FE0346002B01D000F009F9064BD0
:100AB8001B68054A43F48033136000BF2837BD46DE
:100AC80080BD00BF402000200074004080B584B085
:100AD80000AF3B1D00221A605A609A60144B154AF9
:100AE8001A60134B49F63F425A60114B00229A6034
:100AF8000F4B0122DA600E4B80229A610C4803F0FA
:100B0800FDFE0346002B01D000F0DAF800237B60DD
:100B18000023FB603B1D1946054804F085F9034690
:100B2800002B01D000F0CCF800BF1037BD4680BDC7
:100B3800806100200010004080B500AF144B154ABA
:100B48001A60134B4FF496425A60114B00229A6078
:100B58000F4B0022DA600E4B00221A610C4B0C225C
:100B68005A610B4B00229A61094B0022DA61084B4B
:100B780000221A62064B00225A62054804F0FAF96C
:100B88000346002B01D000F09BF800BF80BD00BFDA
:100B9800B84000200038014080B582B000AF0C4B4F
:100BA8009B6C0B4A43F001039364094B9B6C03F065
:100BB80001037B607B68002200210B2001F011FEFD
:100BC8000B2001F02AFE00BF0837BD4680BD00BFDC
:100BD8000010024080B588B000AF07F10C03002276
:100BE8001A605A609A60DA601A61314BDB6C304ADD
:100BF80043F00103D3642E4BDB6C03F00103BB60AD
:100C0800BB682B4BDB6C2A4A43F00203D364284BA6
:100C1800DB6C03F002037B607B68254BDB6C244AAA
:100C280043F01003D364224BDB6C03F010033B60EA
:100C38003B68002204211F4802F026FB00224FF4E3
:100C480080711D4802F020FB0423FB6001233B61F7
:100C580000237B610023BB6107F10C03194615488B
:100C680002F06AF94FF48073FB6001233B610023B3
:100C78007B610023BB6107F10C0319460E4802F0A3
:100C88005BF90123FB600D4B3B6100237B6107F19E
:100C98000C0319464FF0904002F04EF90022002153
:100CA800062001F09EFD00BF2037BD4680BD00BF75
:100CB8000010024000040048001000480000111015
:100CC80080B400AF00BFBD465DF8047B70470000EC
:100CD80080B483B000AF0F4B1B6E0E4A43F0010384
:100CE80013660C4B1B6E03F001037B607B68094B9A
:100CF8009B6D084A43F080539365064B9B6D03F048
:100D080080533B603B6800BF0C37BD465DF8047BF1
:100D1800704700BF0010024080B58AB000AF78600D
:100D280007F1140300221A605A609A60DA601A61A7
:100D38007B681B682B4A93424FD12B4BDB6C2A4AAA
:100D480043F40053D364284BDB6C03F400533B613A
:100D58003B69254BDB6C244A43F00103D364224BE7
:100D6800DB6C03F00103FB60FB680E237B610B2344
:100D7800BB610023FB6107F1140319464FF0904053
:100D880002F0DAF8194B1A4A1A60184B00225A6016
:100D9800164B00229A60154B0022DA60134B802212
:100DA8001A61124B4FF480725A61104B4FF48062F3
:100DB8009A610E4B2022DA610C4B00221A620B4812
:100DC80001F082FE0346002B01D0FFF779FF7B6814
:100DD800064ADA64054A7B68936200BF2837BD4635
:100DE80080BD00BF000004500010024038410020C0
:100DF8000800024080B58AB000AF786007F114039C
:100E080000221A605A609A60DA601A617B681B686F
:100E1800194A93422CD1194B9B6D184A43F0005341
:100E28009365164B9B6D03F000533B613B69134B75
:100E3800DB6C124A43F00103D364104BDB6C03F004
:100E48000103FB60FB6820237B610323BB61002354
:100E5800FB6107F1140319464FF0904002F06CF85B
:100E680000220021362001F0BCFC362001F0D5FC20
:100E780000BF2837BD4680BD007400400010024006
:100E880080B584B000AF78607B681B680D4A9342D8
:100E980013D10D4B9B6D0C4A43F0100393650A4B1D
:100EA8009B6D03F01003FB60FB68002200213620D5
:100EB80001F097FC362001F0B0FC00BF1037BD46AA
:100EC80080BD00BF001000400010024080B58AB00D
:100ED80000AF786007F1140300221A605A609A6024
:100EE800DA601A617B681B681B4A93422FD11B4B3F
:100EF8001B6E1A4A43F480431366184B1B6E03F4A7
:100F080080433B613B69154BDB6C144A43F0020399
:100F1800D364124BDB6C03F00203FB60FB68C02355
:100F28007B610223BB610023FB6103233B62072330
:100F38007B6207F114031946094801F0FDFF0022FE
:100F48000021252001F04DFC252001F066FC00BFA2
:100F58002837BD4680BD00BF003801400010024060
:100F68000004004880B400AF00BFBD465DF8047BB4
:100F7800704780B400AFFEE780B400AFFEE780B4EE
:100F880000AFFEE780B400AFFEE780B400AF00BF5B
:100F9800BD465DF8047B704780B400AF00BFBD4616
:100FA8005DF8047B704780B400AF00BFBD465DF8B4
:100FB800047B704780B500AF00F02CF900BF80BDFE
:100FC80080B500AF034801F0D8FE034B01221A7028
:100FD80000BF80BD384100202A00002080B500AF46
:100FE8000B4BDB6903F04003002B0BD0084B1B6A4B
:100FF800074A43F040031362054B1B68044A23F079
:1010080008031360034804F003F800BF80BD00BF65
:1010180000380140B840002080B500AF104803F008
:1010280018FD104B1A88104B5A610E4B1B88013360
:101038009AB20C4B1A800B4B1B8840F6FF729342F6
:1010480005D1084B00221A80054803F0D7FC074B4E
:101058009B68064A43F00403936000BF80BD00BF4D
:10106800806100203400002000740040000004501B
:1010780080B500AF012002F01FF9094B01221A7058
:10108800084B1B78002B08D0074B00221A70074822
:1010980003F08AFC034B00221A7000BF80BD00BF1A
:1010A80032000020330000202B0000208061002047
:1010B80080B400AF174BD3F88830164A43F4700356
:1010C800C2F88830144B1B68134A43F001031360BD
:1010D800114B00229A60104B1B680F4A23F0A8534B
:1010E80023F4102313600C4B4FF48052DA600A4B40
:1010F8001B68094A23F480231360074B00229A6176
:10110800044B4FF000629A6000BFBD465DF8047B57
:10111800704700BF00ED00E000100240DFF834D057
:10112800002103E00C4B5B58435004310B480C4B37
:1011380042189A42F6D30B4A02E0002342F8043BD5
:10114800094B9A42F9D3FFF7B3FF04F0E9FDFFF723
:10115800B7F9FEE700800120F05D000800000020DC
:101168000C0000200C000020C4610020FEE780B5C0
:1011780082B000AF0023FB71032001F027FB0020A1
:1011880000F00EF80346002B02D00123FB7101E0AA
:10119800FFF79EFDFB7918460837BD4680BD000065
:1011A80080B584B000AF78600023FB73164B1B68D2
:1011B800002B22D0154B1A68134B1B684FF47A7119
:1011C800B1FBF3F3B2FBF3F3184601F034FB03462B
:1011D800002B0FD17B680F2B09D8002279684FF0BC
:1011E800FF3001F0FEFA0A4A7B68136007E001232A
:1011F800FB7304E00123FB7301E00123FB73FB7B1A
:1012080018461037BD4680BD0800002000000020A9
:101218000400002080B400AF054B1A68054B1B681A
:101228001344034A136000BFBD465DF8047B704752
:10123800C06100200800002080B400AF034B1B6889
:101248001846BD465DF8047B704700BFC0610020AA
:1012580080B584B000AF7860FFF7EEFFB8607B68B8
:10126800FB60FB68B3F1FF3F04D0094B1B68FA68C9
:101278001344FB6000BFFFF7DFFF0246BB68D31AC9
:10128800FA689A42F7D800BF1037BD4680BD00BF44
:101298000800002080B483B000AF786039607B68B4
:1012A8009B6823F47C123B681A437B689A6000BFF2
:1012B8000C37BD465DF8047B704780B483B000AF3F
:1012C800786039607B689B6823F0E0723B681A435A
:1012D8007B689A6000BF0C37BD465DF8047B704799
:1012E80080B483B000AF78607B689B6803F0E073DC
:1012F80018460C37BD465DF8047B704790B484B03F
:1013080000AFF860B9607A603B60FB6860331A46EA
:10131800BB689B0013441C462268084B13407A683C
:1013280002F0F8413A680A43134343F0004323604C
:1013380000BF1037BD4690BC704700BF00F0FF03E8
:1013480090B482B000AF786039607B6860331A4629
:101358003B689B0013441C46236803F0F843184677
:101368000837BD4690BC704790B484B000AFF860B1
:10137800B9607A60FB6860331A46BB689B00134407
:101388001C46236823F000427B681343236000BF98
:101398001037BD4690BC704780B483B000AF78600A
:1013A8007B68DB6803F44063002B01D1012300E074
:1013B800002318460C37BD465DF8047B704790B48F
:1013C80084B000AFF860B9607A60FB6830331A46C1
:1013D800BB681B0A9B0003F00C0313441C462268DD
:1013E800BB6803F01F031F2101FA03F3DB431A4014
:1013F8007B689B0E03F01F01BB6803F01F0301FA13
:1014080003F31343236000BF1037BD4690BC7047F9
:1014180090B484B000AFF860B9607A60FB681433A8
:101428001A46BB685B0E9B0003F0040313441C467A
:101438002268BB681B0D03F01F03072101FA03F3A1
:10144800DB431A40BB681B0D03F01F03796801FAE0
:1014580003F31343236000BF1037BD4690BC7047A9
:1014680080B485B000AFF860B9607A60FB68D3F8E3
:10147800B020BB68C3F31203DB431A407B6803F058
:1014880018030849D940BB680B40C3F312031A4339
:10149800FB68C3F8B02000BF1437BD465DF8047B75
:1014A800704700BFFFFF070080B483B000AF7860CB
:1014B8007B689B6803F01F0318460C37BD465DF830
:1014C800047B704780B483B000AF78607B689B680A
:1014D80023F0204323F03F037A68936000BF0C3762
:1014E800BD465DF8047B704780B483B000AF786078
:1014F8007B689B6803F00053B3F1005F01D10123BF
:1015080000E0002318460C37BD465DF8047B7047A1
:1015180080B483B000AF78607B689B6823F0104389
:1015280023F03F0343F080527B689A6000BF0C377A
:10153800BD465DF8047B704780B483B000AF786027
:101548007B689B6803F08053B3F1805F01D101236E
:1015580000E0002318460C37BD465DF8047B704751
:1015680080B483B000AF78607B689B6823F0004349
:1015780023F03F0343F001027B689A6000BF0C37F9
:10158800BD465DF8047B704780B483B000AF7860D7
:101598007B689B6803F00103012B01D1012300E064
:1015A800002318460C37BD465DF8047B704780B4AD
:1015B80083B000AF78607B689B6823F0004323F01A
:1015C8003F0343F004027B689A6000BF0C37BD46B6
:1015D8005DF8047B704780B483B000AF78607B68A7
:1015E8009B6803F00403042B01D1012300E00023CE
:1015F80018460C37BD465DF8047B704780B483B04D
:1016080000AF78607B689B6803F00803082B01D162
:10161800012300E0002318460C37BD465DF8047B23
:101628007047000090B589B000AF78600023FB7761
:101638000023BB607B68002B01D1012334E17B6868
:101648001B69002B7B685B6D002B09D17868FFF75D
:1016580063FB7B6800229A657B68002283F8502030
:101668007B681B681846FFF73FFF0346002B04D032
:101678007B681B681846FFF725FF7B681B681846C0
:10168800FFF75AFF0346002B13D17B681B681846E7
:10169800FFF73EFF864B1B689B09864AA2FB032384
:1016A8009B09BB6002E0BB68013BBB60BB68002BC9
:1016B800F9D17B681B681846FFF73EFF0346002BED
:1016C8000DD17B685B6D43F010027B685A657B68BF
:1016D8009B6D43F001027B689A650123FB777B6869
:1016E8001B681846FFF777FF78617B685B6D03F02E
:1016F8001003002B40F0CF807B69002B40F0CB809B
:101708007B685B6D23F4817343F002027B685A6542
:101718007B681B681846FFF737FF0346002B15D177
:101728006548FFF731FF04466448FFF72DFF03467D
:101738001C436348FFF728FF03462343002B05D1CA
:101748007B685B6819465F48FFF7A4FD7B685B7E92
:101758005A037B685B6B1A437B68DB681A437B68B8
:101768009B681A437B6893F820301B041343BB61C2
:101778007B6893F82030012B06D17B685B6A013BBC
:101788005B04BA691343BB617B689B6A002B09D071
:101798007B689B6A03F470727B68DB6A1343BA69DF
:1017A8001343BB617B681B68DA68474B13407A6850
:1017B8001268B9690B43D3607B681B681846FFF74A
:1017C8000AFF38617B681B681846FFF717FFF86047
:1017D8003B69002B3DD1FB68002B3AD17B681B7E0F
:1017E8009A037B6893F830305B001343BB617B68D6
:1017F8001B68DB6823F4804323F002037A681268CD
:10180800B9690B43D3607B6893F83830012B18D142
:101818007B681B681B6923F4FF6323F004037A6861
:10182800D16B7A68126C11437A68526C11437A68EA
:10183800926C0A431A437B681B6842F001021A61E2
:1018480007E07B681B681A697B681B6822F0010245
:101858001A617B681B69012B0CD17B681B681B6BA9
:1018680023F00F017B68DB695A1E7B681B680A43FB
:101878001A6307E07B681B681A6B7B681B6822F099
:101888000F021A637B685B6D23F0030343F00102C8
:101898007B685A6507E07B685B6D43F010027B68E4
:1018A8005A650123FB77FB7F18462437BD4690BD58
:1018B80000000020632D3E05000004500001045084
:1018C800000204500003045007C0F0FF80B586B042
:1018D80000AF78605748FFF7E7FD38617B681B6801
:1018E8001846FFF778FE0346002B40F09C807B6883
:1018F80093F85030012B01D1022397E07B68012235
:1019080083F85020786800F0D1FC0346FB75FB7D16
:10191800002B40F083807B685B6D23F4706323F0B9
:10192800010343F480727B685A657B681B68424AEE
:10193800934202D07B681B6800E0404B7A681268CB
:10194800934202D03B69002B05D17B685B6D23F481
:1019580080127B685A657B685B6D03F48053B3F52E
:10196800805F06D17B689B6D23F006027B689A65D1
:1019780002E07B6800229A657B681B681C221A605B
:101988007B68002283F850207B681B682A4A9342B0
:1019980002D07B681B6800E0284B7A681268934283
:1019A80008D03B69002B05D03B69052B02D03B6969
:1019B800092B14D17B681B68DB6803F00073002BCC
:1019C80007D07B685B6D23F4405343F480527B68F7
:1019D8005A657B681B681846FFF7E9FD25E07B68B8
:1019E8005B6D43F480127B685A657B681B68124AFA
:1019F800934202D07B681B6800E0104BFB60FB68D9
:101A0800DB6803F00073002B0FD07B685B6D23F459
:101A1800405343F480527B685A6506E07B68002295
:101A280083F8502001E00223FB75FB7D1846183728
:101A3800BD4680BD0003045000010450000004505E
:101A480080B586B000AFF860B9607A605048FFF79B
:101A58002BFD3861FB681B681846FFF7BCFD034681
:101A6800002B40F08E80FB6893F85030012B01D199
:101A7800022389E0FB68012283F850203B69002B90
:101A880005D03B69052B02D03B69092B72D1F86858
:101A980000F00CFC0346FB75FB7D002B65D1FB6851
:101AA8005B6D23F4706323F0010343F48072FB68D9
:101AB8005A65FB681B68374A934202D0FB681B686B
:101AC80000E0354BFA681268934202D03B69002B5C
:101AD80005D1FB685B6D23F48012FB685A65FB68CF
:101AE8005B6D03F48053002B06D0FB689B6D23F0DD
:101AF8000602FB689A6502E0FB6800229A65FB68AB
:101B0800DB6C264ADA62FB68DB6C254A1A63FB68E1
:101B1800DB6C244A5A63FB681B681C221A60FB684A
:101B2800002283F85020FB681B685A68FB681B6812
:101B380042F010025A60FB681B68DA68FB681B6891
:101B480042F00102DA60FB68D86CFB681B6840331E
:101B58001946BA687B6801F06FF80346FB75FB68A5
:101B68001B681846FFF723FD0DE0FB68002283F889
:101B7800502008E00123FB75FB68002283F8502001
:101B880001E00223FB75FB7D18461837BD4680BD72
:101B980000030450000104500000045069230008A9
:101BA800412400085D24000880B483B000AF786049
:101BB80000BF0C37BD465DF8047B704780B483B026
:101BC80000AF786000BF0C37BD465DF8047B7047F6
:101BD80080B483B000AF786000BF0C37BD465DF8B5
:101BE800047B704780B5A6B000AF786039600023E9
:101BF80087F897300023BB607B6893F85030012B3F
:101C080001D1022348E37B68012283F850207B68D6
:101C18001B681846FFF7DFFC0346002B40F02983BA
:101C28003B685B68052B24D83B685B68023B032B49
:101C38001BD801A252F823F0511C0008591C0008B7
:101C4800611C0008691C00083B680C225A6011E0FE
:101C58003B6812225A600DE03B6818225A6009E07E
:101C68003B684FF480725A6004E03B6806225A6071
:101C780000E000BF7B6818683B6859683B681B68D0
:101C88001A46FFF79CFB7B681B681846FFF7A3FC06
:101C9800C7F890007B681B681846FFF7AFFCC7F8C9
:101CA8008C00D7F89030002B40F04881D7F88C3062
:101CB800002B40F043817B6818683B6819683B68D3
:101CC8009B681A46FFF7A4FB3B685A697B681B6848
:101CD800DB68DB0803F003035B0002FA03F3C7F8D1
:101CE80088303B681B69042B0AD07B6818683B68FE
:101CF80019693B681A68D7F88830FFF7FFFA1DE1C1
:101D08007B681B6800211846FFF71AFB0346C3F3DC
:101D18001203002B0AD17B681B6800211846FFF7C5
:101D28000FFB03469B0E03F01F0212E07B681B6843
:101D380000211846FFF704FB0346C7F88030D7F8A0
:101D4800803093FAA3F3FB67FB6FB3FA83F3DBB23C
:101D58001A463B681B68C3F31203002B05D13B6886
:101D68001B689B0E03F01F030AE03B681B68BB67F8
:101D7800BB6F93FAA3F37B677B6FB3FA83F3DBB292
:101D88009A4206D17B681B68002200211846FFF79B
:101D9800EBFA7B681B6801211846FFF7D1FA034666
:101DA800C3F31203002B0AD17B681B680121184674
:101DB800FFF7C6FA03469B0E03F01F0210E07B688C
:101DC8001B6801211846FFF7BBFA03463B673B6FC8
:101DD80093FAA3F3FB66FB6EB3FA83F3DBB21A46FE
:101DE8003B681B68C3F31203002B05D13B681B68D3
:101DF8009B0E03F01F030AE03B681B68BB66BB6EC3
:101E080093FAA3F37B667B6EB3FA83F3DBB29A4251
:101E180006D17B681B68002201211846FFF7A4FA47
:101E28007B681B6802211846FFF78AFA0346C3F34A
:101E38001203002B0AD17B681B6802211846FFF7A2
:101E48007FFA03469B0E03F01F0210E07B681B68B5
:101E580002211846FFF774FA03463B663B6E93FA75
:101E6800A3F3FB65FB6DB3FA83F3DBB21A463B6859
:101E78001B68C3F31203002B05D13B681B689B0E3C
:101E880003F01F030AE03B681B68BB65BB6D93FA50
:101E9800A3F37B657B6DB3FA83F3DBB29A4206D179
:101EA8007B681B68002202211846FFF75DFA7B68F1
:101EB8001B6803211846FFF743FA0346C3F31203CE
:101EC800002B0AD17B681B6803211846FFF738FAF4
:101ED80003469B0E03F01F0210E07B681B6803217A
:101EE8001846FFF72DFA03463B653B6D93FAA3F3BB
:101EF800FB64FB6CB3FA83F3DBB21A463B681B68DE
:101F0800C3F31203002B05D13B681B689B0E03F03B
:101F18001F030AE03B681B68BB64BB6C93FAA3F31E
:101F28007B647B6CB3FA83F3DBB29A4206D17B689D
:101F38001B68002203211846FFF716FA7B681B6806
:101F48001846FFF721FB0346002B40F00C817B6805
:101F580018683B6819683B68DB681A46FFF780FA1F
:101F68003B68DB68AD4A934240F0FD807B681868A7
:101F78003B681B68C3F31203002B0BD13B681B683B
:101F88009B0E013303F01F03092B94BF0123002389
:101F9800DBB212E03B681B683B643B6C93FAA3F32B
:101FA800FB63FB6BB3FA83F3DBB2013303F01F036C
:101FB800092B94BF01230023DBB2002B64D03B68BC
:101FC8001B68C3F31203002B07D13B681B689B0EE9
:101FD80001339B0603F0F8420EE03B681B68BB63C5
:101FE800BB6B93FAA3F37B637B6BB3FA83F3DBB22C
:101FF80001339B0603F0F8423B681B68C3F31203E6
:10200800002B09D13B681B689B0E013303F01F03AB
:10201800012101FA03F310E03B681B683B633B6B4B
:1020280093FAA3F3FB62FB6AB3FA83F3DBB20133DF
:1020380003F01F03012101FA03F342EA03013B689D
:102048001B68C3F31203002B0AD13B681B689B0E65
:10205800013303F01F0213465B0013441B0511E014
:102068003B681B68BB62BB6A93FAA3F37B627B6A1B
:10207800B3FA83F3DBB2013303F01F0213465B00AC
:1020880013441B050B4369E03B681B68C3F3120349
:10209800002B07D13B681B689B0E01339B0603F09E
:1020A800F8420EE03B681B683B623B6A93FAA3F375
:1020B800FB61FB69B3FA83F3DBB201339B0603F0E0
:1020C800F8423B681B68C3F31203002B09D13B6835
:1020D8001B689B0E013303F01F03012101FA03F370
:1020E80010E03B681B68BB61BB6993FAA3F37B6193
:1020F8007B69B3FA83F3DBB2013303F01F030121D9
:1021080001FA03F342EA03013B681B68C3F31203B5
:10211800002B0DD13B681B689B0E013303F01F0297
:1021280013465B0013441E3B1B0543F0007314E089
:102138003B681B683B613B6993FAA3F3FB60FB6850
:10214800B3FA83F3DBB2013303F01F0213465B00DB
:1021580013441E3B1B0543F000730B433A68926817
:102168001946FFF755F93B681A682D4B1340002BA9
:1021780000F08C802B48FFF7B3F8C7F884003B6861
:102188001B68294A93422BD1D7F8843003F4000303
:10219800002B25D17B681B68244A934204D07B68B6
:1021A8001B68234A93426ED1D7F8843043F4000366
:1021B80019461C48FFF781F81E4B1B689B091E4AED
:1021C800A2FB03239A0913465B0013449B00BB60E0
:1021D80002E0BB68013BBB60BB68002BF9D152E051
:1021E8003B681B68154A93422AD1D7F8843003F01C
:1021F8008073002B24D17B681B680C4A934204D05F
:102208007B681B680A4A93423FD1D7F8843043F071
:10221800807319460348FFF750F836E000007F4006
:102228000000088000030450000052C7000004505A
:102238000002045000000020632D3E05000084CBFE
:102248003B681B68164A934220D1D7F8843003F4C0
:102258008003002B1AD17B681B68124A934215D160
:10226800D7F8843043F4800319460F48FFF725F860
:102278000CE07B685B6D43F020027B685A650123A4
:1022880087F8973002E000BF00E000BF7B680022BB
:1022980083F8502097F8973018469837BD4680BD88
:1022A80001000080000004500003045080B584B091
:1022B80000AF78607B681B681846FFF765F903462E
:1022C800002B46D17B681B689A68244B1340002B6F
:1022D8000DD07B685B6D43F010027B685A657B68A4
:1022E8009B6D43F001027B689A65012332E07B68AD
:1022F8001B681846FFF734F9FEF79EFFF86021E0E7
:102308007B681B681846FFF73FF90346002B04D18A
:102318007B681B681846FFF723F9FEF78DFF024616
:10232800FB68D31A022B0DD97B685B6D43F0100252
:102338007B685A657B689B6D43F001027B689A65F0
:10234800012307E07B681B681B6803F00103012B6E
:10235800D6D1002318461037BD4680BD3F00008007
:1023680080B584B000AF78607B689B6AFB60FB68CF
:102378005B6D03F05003002B4BD1FB685B6D43F49E
:102388000072FB685A65FB681B681B6803F008034A
:10239800002B21D0FB681B681846FEF7FDFF03469B
:1023A800002B32D0FB681B68DB6803F40053002B5A
:1023B8002BD1FB685B6D23F48072FB685A65FB6860
:1023C8005B6D03F48053002B1FD1FB685B6D43F0FA
:1023D8000102FB685A6518E0FB681B68DB6803F0BC
:1023E8000203002B11D1FB685B6D23F48072FB683C
:1023F8005A65FB685B6D03F48053002B05D1FB68BD
:102408005B6D43F00102FB685A65F868FFF7CCFB87
:102418000EE0FB685B6D03F01003002B03D0F86837
:10242800FFF7D6FB04E0FB68DB6C5B6B78689847CA
:1024380000BF1037BD4680BD80B584B000AF78605E
:102448007B689B6AFB60F868FFF7B8FB00BF103732
:10245800BD4680BD80B584B000AF78607B689B6A5C
:10246800FB60FB685B6D43F04002FB685A65FB68E4
:102478009B6D43F00402FB689A65F868FFF7A8FBB8
:1024880000BF1037BD4680BD80B483B000AF786010
:102498007B689B6803F00103012B01D1012300E055
:1024A800002318460C37BD465DF8047B704780B49E
:1024B80083B000AF78607B689B6803F00403042B4B
:1024C80001D1012300E0002318460C37BD465DF812
:1024D800047B704790B59FB000AF786039600023E7
:1024E80087F877307B6893F85030012B01D10223AD
:1024F8008FE07B68012283F850207B681B68474A7D
:10250800934202D1464BBB6001E00023BB60BB682D
:10251800002B0BD17B685B6D43F020027B685A650A
:102528007B68002283F85020012372E0BB681846BC
:10253800FFF7BDFF38677B681B681846FFF7B7FFD2
:102548000346002B54D13B6F002B51D1354BFB6612
:102558003B681B68002B2CD0FB6E9B6823F4604201
:102568003B6859687B6893F830305B030B431A4328
:10257800FB6E9A602948FFF787FF04462848FFF753
:1025880083FF03461C432848FFF77EFF0346234387
:10259800002B37D1FB6E9B6823F4716323F00F0384
:1025A8003A6811683A6892680A431A43FB6E9A605F
:1025B80028E0FB6E9B6823F46042FB6E9A60174824
:1025C800FFF762FF04461648FFF75EFF03461C4309
:1025D8001548FFF759FF03462343002B12D1FB6E22
:1025E8009B6823F4716323F00F03FA6E936009E08C
:1025F8007B685B6D43F020027B685A65012387F88E
:10260800773000E000BF7B68002283F8502097F8FD
:10261800773018467C37BD4690BD00BF0000045097
:1026280000010450000304500002045080B485B037
:1026380000AF78607B6803F00703FB600C4BDB6836
:10264800BB60BA684FF6FF031340BB60FB681A0211
:10265800BB68134343F0BF6343F40033BB60044AD1
:10266800BB68D36000BF1437BD465DF8047B704774
:1026780000ED00E080B400AF044BDB681B0A03F0F8
:1026880007031846BD465DF8047B704700ED00E07F
:1026980080B483B000AF0346FB7197F90730002B75
:1026A8000BDBFB7903F01F02074997F907305B0939
:1026B800012000FA02F241F8232000BF0C37BD4682
:1026C8005DF8047B704700BF00E100E080B483B090
:1026D80000AF03463960FB7197F90730002B0ADB1E
:1026E8003B68DAB20C4997F907301201D2B20B44B1
:1026F80083F800230AE03B68DAB20849FB7903F063
:102708000F03043B1201D2B20B441A7600BF0C37F8
:10271800BD465DF8047B704700E100E000ED00E095
:1027280080B489B000AFF860B9607A60FB6803F0E4
:102738000703FB61FB69C3F10703042B28BF0423CC
:10274800BB61FB690433062B02D9FB69033B00E03C
:1027580000237B614FF0FF32BB6902FA03F3DA43CF
:10276800BB681A407B699A404FF0FF317B6901FAD8
:1027780003F3D9437B680B40134318462437BD46FF
:102788005DF8047B7047000080B582B000AF7860C8
:102798007B68013BB3F1807F01D301230FE00A4A34
:1027A8007B68013B53600F214FF0FF30FFF78EFF2E
:1027B800054B00229A60044B07221A600023184632
:1027C8000837BD4680BD00BF10E000E080B582B08C
:1027D80000AF78607868FFF729FF00BF0837BD466B
:1027E80080BD80B586B000AF0346B9607A60FB73E0
:1027F80000237B61FFF73EFF78617A68B9687869E2
:10280800FFF78EFF024697F90F3011461846FFF77B
:102818005DFF00BF1837BD4680BD80B582B000AFF0
:102828000346FB7197F907301846FFF731FF00BFE1
:102838000837BD4680BD80B582B000AF7860786843
:10284800FFF7A2FF034618460837BD4680BD80B58E
:1028580082B000AF78607B68002B01D1012314E0BF
:102868007B681B79DBB2002B05D17B6800225A718B
:102878007868FEF7BFFA7B6802221A717B6800222B
:102888001A617B6801221A71002318460837BD4671
:1028980080BD80B588B000AFF860B9607A60002369
:1028A800FB61FB685B79012B01D1022307E1FB681F
:1028B80001225A71FB6802221A71BB681B68042B3B
:1028C80074D17B68002B37D1FEF7B6FCF86111E0B4
:1028D800FEF7B2FC0246FB69D31A012B0AD9FB6842
:1028E8001B6943F00802FB681A61FB6803221A712E
:1028F8000323E4E0FB681B685B6B03F40043002BD5
:10290800E6D10120FEF7A4FCFB681B68BA6892694F
:102918001A641EE0FEF790FC0246FB69D31A012BED
:102928000AD9FB681B6943F00802FB681A61FB6857
:1029380003221A710323C2E0FB681B685B6B002B40
:10294800E8DB0120FEF784FCFB681B68BA68926923
:102958005A64FB681B689A6C7B6803F0100340F2AA
:10296800FF3101FA03F3DB4302EA0301BB68DA69CA
:102978007B6803F010039A40FB681B680A439A645B
:10298800FB681B68DA6C7B6803F01003FF2101FA0F
:1029980003F3DB4302EA0301BB681A6A7B6803F0AE
:1029A80010039A40FB681B680A43DA64BB681B691A
:1029B800012B1DD1FB681B689B6BBB617B6803F017
:1029C80010031F2202FA03F3DB43BA691340BB6109
:1029D800BB685B697B617B6803F010037A6902FA64
:1029E80003F3BA691343BB61FB681B68BA699A634E
:1029F800FB681B68DB6BBB617B6803F01003072275
:102A080002FA03F3DB43BA691340BB61BB681A6877
:102A1800BB689B681A43BB68DB6813437B617B68B0
:102A280003F010037A6902FA03F3BA691343BB612E
:102A3800FB681B68BA69DA63FB681B6819687B68FE
:102A480003F010034FF4804202FA03F3DA43FB6801
:102A58001B680A401A60FB681B681B68BB617B68BF
:102A680003F0100340F6FC7202FA03F3DB43BA6981
:102A78001340BB61BB685B687B617B6803F0100334
:102A88007A6902FA03F3BA691343BB61FB681B68EE
:102A9800BA691A60FB681B6819687B6803F0100341
:102AA800C02202FA03F3DA43FB681B680A401A6083
:102AB800FB6801221A71FB6800225A71002318462C
:102AC8002037BD4680BD000080B485B000AF786077
:102AD8007B68002B01D1012398E07B681B681A46AC
:102AE8004D4B9A420FD87B681B681A464B4B1344D0
:102AF8004B4AA2FB03231B099A007B685A647B6834
:102B0800484A1A640EE07B681B681A46464B134411
:102B1800434AA2FB03231B099A007B685A647B681B
:102B2800424A1A647B68022283F825207B681B6866
:102B38001B68FB60FB6823F4FF4323F07003FB6012
:102B48007B689A687B68DB681A437B681B691A4351
:102B58007B685B691A437B689B691A437B68DB69FE
:102B68001A437B681B6A1343FA681343FB607B684C
:102B78001B68FA681A607B689B68B3F5804F39D088
:102B88007B681B6C274A93421AD1294B1A687B68C9
:102B98005B6C03F01C030F2101FA03F3DB432449A8
:102BA80013400B60224B1A687B6859687B685B6C22
:102BB80003F01C0301FA03F31D4913430B6019E0EA
:102BC8001C4B1A687B685B6C03F01C030F2101FA2D
:102BD80003F3DB43174913400B60164B1A687B68F5
:102BE80059687B685B6C03F01C0301FA03F3114915
:102BF80013430B607B680022DA637B68012283F849
:102C080025207B68002283F82420002318461437E7
:102C1800BD465DF8047B704707040240F8FFFDBF1E
:102C2800CDCCCCCC00000240F8FBFDBF0004024034
:102C3800A8000240A804024080B586B000AFF86042
:102C4800B9607A603B600023FB75FB6893F8243019
:102C5800012B01D102234BE0FB68012283F82420D9
:102C6800FB6893F82530DBB2012B3AD1FB680222CE
:102C780083F82520FB680022DA63FB681B681A6862
:102C8800FB681B6822F001021A603B687A68B96821
:102C9800F86800F021F9FB681B6B002B08D0FB6873
:102CA8001B681A68FB681B6842F00E021A600FE086
:102CB800FB681B681A68FB681B6822F004021A602C
:102CC800FB681B681A68FB681B6842F00A021A60F6
:102CD800FB681B681A68FB681B6842F001021A60EF
:102CE80005E0FB68002283F824200223FB75FB7DA6
:102CF80018461837BD4680BD80B584B000AF7860EF
:102D08000023FB737B6893F82530DBB2022B05D0D8
:102D18007B680422DA630123FB7329E07B681B6864
:102D28001A687B681B6822F00E021A607B681B68B1
:102D38001A687B681B6822F001021A607B685B6C6A
:102D480003F01C027B681B6C012101FA02F25A6035
:102D58007B68012283F825207B68002283F82420E1
:102D68007B689B6B002B03D07B689B6B78689847CC
:102D7800FB7B18461037BD4680BD80B584B000AFD8
:102D880078607B681B6C1B68FB607B681B681B6832
:102D9800BB607B685B6C03F01C0304229A40FB68F1
:102DA8001340002B26D0BB6803F00403002B21D06E
:102DB8007B681B681B6803F02003002B07D17B6826
:102DC8001B681A687B681B6822F004021A607B681B
:102DD8005B6C03F01C027B681B6C042101FA02F295
:102DE8005A607B681B6B002B71D07B681B6B786803
:102DF80098476CE07B685B6C03F01C0302229A40E6
:102E0800FB681340002B2ED0BB6803F00203002B95
:102E180029D07B681B681B6803F02003002B0BD1AB
:102E28007B681B681A687B681B6822F00A021A60B4
:102E38007B68012283F825207B685B6C03F01C0209
:102E48007B681B6C022101FA02F25A607B6800223F
:102E580083F824207B68DB6A002B38D07B68DB6A28
:102E68007868984733E07B685B6C03F01C030822A2
:102E78009A40FB681340002B2AD0BB6803F0080374
:102E8800002B25D07B681B681A687B681B6822F0BA
:102E98000E021A607B685B6C03F01C027B681B6C7B
:102EA800012101FA02F25A607B680122DA637B6829
:102EB800012283F825207B68002283F824207B6880
:102EC8005B6B002B04D07B685B6B7868984700BF0E
:102ED80000BF1037BD4680BD80B485B000AFF86034
:102EE800B9607A603B60FB685B6C03F01C02FB68AE
:102EF8001B6C012101FA02F25A60FB681B683A68F0
:102F08005A60FB689B68102B08D1FB681B687A68BD
:102F18009A60FB681B68BA68DA6007E0FB681B68A0
:102F2800BA689A60FB681B687A68DA6000BF143771
:102F3800BD465DF8047B704780B487B000AF786009
:102F4800396000237B617FE13B681A6801217B6956
:102F580001FA03F31340FB60FB68002B00F071815A
:102F68003B685B68012B0BD03B685B68022B07D082
:102F78003B685B68112B03D03B685B68122B30D130
:102F88007B689B683B617B695B00032202FA03F361
:102F9800DB433A6913403B613B68DA687B695B0055
:102FA80002FA03F33A6913433B617B683A699A6012
:102FB8007B685B683B6101227B6902FA03F3DB43B0
:102FC8003A6913403B613B685B681B0903F00102E7
:102FD8007B6902FA03F33A6913433B617B683A69F8
:102FE8005A603B685B6803F00303032B18D17B68C6
:102FF800DB6A3B6101227B6902FA03F3DB433A692E
:1030080013403B613B685B68DB0803F001027B69A6
:1030180002FA03F33A6913433B617B683A69DA625F
:103028007B68DB683B617B695B00032202FA03F380
:10303800DB433A6913403B613B689A687B695B00F4
:1030480002FA03F33A6913433B617B683A69DA6031
:103058003B685B68022B03D03B685B68122B23D16B
:103068007B69DA087B68083253F822303B617B6958
:1030780003F007039B000F2202FA03F3DB433A69CC
:1030880013403B613B681A697B6903F007039B00A7
:1030980002FA03F33A6913433B617B69DA087B68F8
:1030A8000832396943F822107B681B683B617B69E9
:1030B8005B00032202FA03F3DB433A6913403B61E6
:1030C8003B685B6803F003027B695B0002FA03F369
:1030D8003A6913433B617B683A691A603B685B68ED
:1030E80003F08053002B00F0AC805E4B1B6E5D4AF2
:1030F80043F0010313665B4B1B6E03F00103BB60D7
:10310800BB68594A7B699B08023352F823303B61FC
:103118007B6903F003039B000F2202FA03F3DB43EE
:103128003A6913403B617B68B3F1904F25D07B68C7
:103138004E4A93421FD07B684D4A934219D07B6810
:103148004C4A934213D07B684B4A93420DD07B681C
:103158004A4A934207D07B68494A934201D10623E1
:103168000CE007230AE0052308E0042306E0032314
:1031780004E0022302E0012300E000237A6902F060
:103188000302920093403A6913433B6136497B69D5
:103198009B0802333A6941F823203A4B1B683B618C
:1031A800FB68DB433A6913403B613B685B6803F4A7
:1031B8008033002B03D03A69FB6813433B61314AE3
:1031C8003B6913602F4B5B683B61FB68DB433A69E3
:1031D80013403B613B685B6803F40033002B03D06A
:1031E8003A69FB6813433B61264A3B695360254BA8
:1031F8009B683B61FB68DB433A6913403B613B6872
:103208005B6803F48013002B03D03A69FB6813430F
:103218003B611C4A3B6993601A4BDB683B61FB6866
:10322800DB433A6913403B613B685B6803F4001376
:10323800002B03D03A69FB6813433B61114A3B6991
:10324800D3607B6901337B613B681A687B6922FA2A
:1032580003F3002B7FF478AE00BF1C37BD465DF842
:10326800047B704700100240000001400004004841
:1032780000080048000C00480010004800140048EE
:10328800001800480004014080B483B000AF7860A3
:103298000B467B8013467B707B78002B03D07A88A3
:1032A8007B689A6102E07A887B689A6200BF0C3773
:1032B800BD465DF8047B704780B582B000AF034619
:1032C800FB80084B5A69FB881340002B06D0054A3F
:1032D800FB885361FB88184600F006F800BF0837E2
:1032E800BD4680BD0004014080B483B000AF0346F2
:1032F800FB8000BF0C37BD465DF8047B70470000BB
:1033080080B400AF044B1B6803F4C0631846BD4685
:103318005DF8047B704700BF0070004080B485B042
:1033280000AF78607B68B3F5007F30D1234B1B6812
:1033380003F4C063B3F5007F38D0204B1B6823F437
:10334800C0631E4A43F4007313601D4B1B6832228E
:1033580002FB03F31B4AA2FB03239B0C0133FB6014
:1033680002E0FB68013BFB60144B5B6903F480637C
:10337800B3F5806F02D1FB68002BF2D10F4B5B696C
:1033880003F48063B3F5806F10D103230FE00B4B78
:103398001B6803F4C063B3F5806F07D0074B1B6845
:1033A80023F4C063054A43F480631360002318467E
:1033B8001437BD465DF8047B704700BF00700040BD
:1033C8000000002083DE1B4380B588B000AF786022
:1033D8007B68002B01D10123D4E3A14B9B6803F048
:1033E8000C03BB619E4BDB6803F003037B617B68C6
:1033F8001B6803F01003002B00F0E480BB69002B6E
:1034080007D0BB690C2B40F08B807B69012B40F007
:103418008780934B1B6803F00203002B05D07B6861
:103428009B69002B01D10123ACE37B681A6A8C4BA2
:103438001B6803F00803002B04D0894B1B6803F0BA
:10344800F00305E0864BD3F894301B0903F0F00332
:10345800934223D27B681B6A184600F03FFD03465F
:10346800002B01D001238DE37D4B1B687C4A43F080
:10347800080313607A4B1B6823F0F0027B681B6A11
:10348800774913430B60764B5B6823F47F427B6874
:10349800DB691B02724913434B6025E0704B1B68C4
:1034A8006F4A43F0080313606D4B1B6823F0F0026A
:1034B8007B681B6A6A4913430B60694B5B6823F49A
:1034C8007F427B68DB691B02654913434B60BB691C
:1034D800002B09D17B681B6A184600F0FFFC0346E5
:1034E800002B01D001234DE300F036FC01465C4B74
:1034F8009B681B0903F00F035A4AD35C03F01F03B0
:1035080021FA03F3584A1360584B1B681846FDF715
:1035180047FE0346FB73FB7B002B52D0FB7B31E35A
:103528007B689B69002B32D04D4B1B684C4A43F09B
:1035380001031360FDF780FE386108E0FDF77CFEAB
:1035480002463B69D31A022B01D903231AE3444BE1
:103558001B6803F00203002BF0D0414B1B68404A64
:1035680043F0080313603E4B1B6823F0F0027B68AE
:103578001B6A3B4913430B60394B5B6823F47F425A
:103588007B68DB691B02364913434B601AE0344BF6
:103598001B68334A23F001031360FDF74DFE3861C1
:1035A80008E0FDF749FE02463B69D31A022B01D910
:1035B8000323E7E22A4B1B6803F00203002BF0D138
:1035C80000E000BF7B681B6803F00103002B74D088
:1035D800BB69082B05D0BB690C2B0ED17B69032B6B
:1035E8000BD11F4B1B6803F40033002B64D07B689E
:1035F8005B68002B60D10123C4E27B685B68B3F58C
:10360800803F06D1164B1B68154A43F4803313607C
:103618001DE07B685B68B3F5A02F0CD1104B1B68CD
:103628000F4A43F4802313600D4B1B680C4A43F484
:10363800803313600BE00A4B1B68094A23F480337C
:103648001360074B1B68064A23F4802313607B68CA
:103658005B68002B1CD0FDF7EFFD386111E000BF5F
:1036680000100240985D00080000002004000020BF
:10367800FDF7E2FD02463B69D31A642B01D9032307
:1036880080E2AF4B1B6803F40033002BF0D014E04A
:10369800FDF7D2FD386108E0FDF7CEFD02463B6933
:1036A800D31A642B01D903236CE2A54B1B6803F4DE
:1036B8000033002BF0D100E000BF7B681B6803F0EB
:1036C8000203002B60D0BB69042B05D0BB690C2B0F
:1036D80019D17B69022B16D1994B1B6803F48063BF
:1036E800002B05D07B68DB68002B01D1012349E260
:1036F800934B5B6823F0F8527B681B691B06904963
:1037080013434B6040E07B68DB68002B23D08C4B75
:103718001B688B4A43F480731360FDF78DFD386195
:1037280008E0FDF789FD02463B69D31A022B01D94F
:10373800032327E2824B1B6803F48063002BF0D03D
:103748007F4B5B6823F0F8527B681B691B067C493A
:1037580013434B6018E07A4B1B68794A23F4807353
:103768001360FDF769FD386108E0FDF765FD024665
:103778003B69D31A022B01D9032303E2704B1B6860
:1037880003F48063002BF0D17B681B6803F0080307
:10379800002B3CD07B685B69002B1CD0684BD3F8AE
:1037A8009430674A43F00103C2F89430FDF744FDB2
:1037B800386108E0FDF740FD02463B69D31A022B49
:1037C80001D90323DEE15E4BD3F8943003F0020302
:1037D800002BEFD01BE05A4BD3F89430584A23F013
:1037E8000103C2F89430FDF727FD386108E0FDF7C2
:1037F80023FD02463B69D31A022B01D90323C1E1F9
:103808004F4BD3F8943003F00203002BEFD17B68C1
:103818001B6803F00403002B00F0A6800023FB774D
:10382800474B9B6D03F08053002B0DD1444B9B6D90
:10383800434A43F080539365414B9B6D03F080539B
:10384800BB60BB680123FB773E4B1B6803F48073A6
:10385800002B18D13B4B1B683A4A43F48073136022
:10386800FDF7EAFC386108E0FDF7E6FC02463B6933
:10387800D31A022B01D9032384E1324B1B6803F4CA
:103888008073002BF0D07B689B68012B08D12C4BF0
:10389800D3F890302A4A43F00103C2F8903024E06C
:1038A8007B689B68052B10D1254BD3F89030244AB0
:1038B80043F00403C2F89030214BD3F89030204AEB
:1038C80043F00103C2F890300FE01D4BD3F890305D
:1038D8001B4A23F00103C2F89030194BD3F89030FB
:1038E800174A23F00403C2F890307B689B68002BCA
:1038F80016D0FDF7A1FC38610AE0FDF79DFC0246F1
:103908003B69D31A41F28832934201D9032339E142
:103918000B4BD3F8903003F00203002BEDD01AE0E4
:10392800FDF78AFC38610FE0FDF786FC02463B692B
:10393800D31A41F28832934206D9032322E100BF09
:103948000010024000700040904BD3F8903003F014
:103958000203002BE8D1FB7F012B05D18B4B9B6D1C
:103968008A4A23F0805393657B689B6A002B00F09A
:1039780008817B689B6A022B40F0D080834BDB6810
:103988007B617B6903F003027B68DB6A9A4230D172
:103998007B6903F070027B681B6B013B1B019A4239
:1039A80027D17B6903F4FE427B685B6B1B029A425A
:1039B8001FD17B6903F400337A68926B072A14BF1E
:1039C80001220022D2B2934213D17B6903F4C002D0
:1039D8007B68DB6B5B08013B5B059A4209D17B691D
:1039E80003F0C0627B681B6C5B08013B5B069A4274
:1039F8006ED0BB690C2B69D0644B1B6803F08063E5
:103A0800002B05D1614B1B6803F08053002B01D0BC
:103A18000123B7E05D4B1B685C4A23F08073136099
:103A2800FDF70AFC386108E0FDF706FC02463B6931
:103A3800D31A022B01D90323A4E0544B1B6803F0CB
:103A48000073002BF0D1514BDA68514B13407A6860
:103A5800D16A7A68126B013A120111437A68526B83
:103A6800120211437A68D26B5208013A5205114387
:103A78007A68126C5208013A520611437A68926BBE
:103A8800120952040A4341491343CB603F4B1B6858
:103A98003E4A43F0807313603C4BDB683B4A43F07B
:103AA8008073D360FDF7C8FB386108E0FDF7C4FBFD
:103AB80002463B69D31A022B01D9032362E0334B38
:103AC8001B6803F00073002BF0D05AE0012359E083
:103AD8002E4B1B6803F00073002B52D12B4B1B6835
:103AE8002A4A43F080731360284BDB68274A43F067
:103AF8008073D360FDF7A0FB386108E0FDF79CFBFD
:103B080002463B69D31A022B01D903233AE01F4B23
:103B18001B6803F00073002BF0D032E0BB690C2B5C
:103B28002DD01A4B1B68194A23F080731360174B6A
:103B38001B6803F02053002B05D1144BDB68134A94
:103B480023F00303D360114BDB68104A23F088731A
:103B580023F48033D360FDF76FFB386108E0FDF78D
:103B68006BFB02463B69D31A022B01D9032309E0F8
:103B7800064B1B6803F00073002BF0D101E0012312
:103B880000E0002318462037BD4680BD00100240E3
:103B98008C809DF980B584B000AF786039607B680F
:103BA800002B01D10123C8E0664B1B6803F0070313
:103BB8003A689A4210D9634B1B6823F0070261499F
:103BC8003B6813430B605F4B1B6803F007033A68BD
:103BD8009A4201D00123B0E07B681B6803F001031F
:103BE800002B4CD07B685B68032B07D1564B1B68B6
:103BF80003F00073002B21D101239EE07B685B68F2
:103C0800022B07D1504B1B6803F40033002B15D14E
:103C1800012392E07B685B68002B07D14A4B1B6845
:103C280003F00203002B09D1012386E0464B1B68F1
:103C380003F48063002B01D101237EE0424B9B6893
:103C480023F003027B685B683F4913438B60FDF7F1
:103C5800F3FAF8600AE0FDF7EFFA0246FB68D31AB8
:103C680041F28832934201D9032366E0364B9B68C0
:103C780003F00C027B685B689B009A42EBD17B687F
:103C88001B6803F00203002B08D02F4B9B6823F01E
:103C9800F0027B689B682C4913438B60294B1B6897
:103CA80003F007033A689A4210D2264B1B6823F0A8
:103CB800070224493B6813430B60224B1B6803F03F
:103CC80007033A689A4201D0012336E07B681B68F3
:103CD80003F00403002B08D01B4B9B6823F4E0621D
:103CE8007B68DB68184913438B607B681B6803F0AB
:103CF8000803002B09D0144B9B6823F460527B689F
:103D08001B69DB00104913438B6000F025F801465E
:103D18000D4B9B681B0903F00F030C4AD35C03F09F
:103D28001F0321FA03F30A4A13600A4B1B6818465B
:103D3800FDF736FA0346FB72FB7A18461037BD4684
:103D480080BD00BF0020024000100240985D0008BE
:103D5800000000200400002080B489B000AF0023D8
:103D6800FB610023BB613D4B9B6803F00C033B6187
:103D78003A4BDB6803F00303FB603B69002B05D07B
:103D88003B690C2B21D1FB68012B1ED1334B1B68DF
:103D980003F00803002B07D1304BD3F894301B0AEB
:103DA80003F00F03FB6105E02C4B1B681B0903F0B4
:103DB8000F03FB612A4AFB6952F82330FB613B6918
:103DC800002B0DD1FB69BB610AE03B69042B02D1D2
:103DD800244BBB6104E03B69082B01D1224BBB613A
:103DE8003B690C2B33D11D4BDB6803F00303BB602D
:103DF800BB68022B02D0032B03D005E0194B7B6173
:103E080005E0194B7B6102E0FB697B6100BF134B46
:103E1800DB681B0903F0070301337B600F4BDB688A
:103E28001B0A03F07F037A6902FB03F27B68B2FB8B
:103E3800F3F37B61094BDB685B0E03F0030301338B
:103E48005B003B607A693B68B2FBF3F3BB61BB691B
:103E580018462437BD465DF8047B704700100240C1
:103E6800B05D00080024F40000127A0080B400AFAE
:103E7800034B1B681846BD465DF8047B704700BFBE
:103E88000000002080B500AFFFF7F0FF0146064BA9
:103E98009B681B0A03F00703044AD35C03F01F0363
:103EA80021FA03F3184680BD00100240A85D0008FF
:103EB80080B500AFFFF7DAFF0146064B9B68DB0AC7
:103EC80003F00703044AD35C03F01F0321FA03F34A
:103ED800184680BD00100240A85D000880B586B075
:103EE80000AF786000233B612A4B9B6D03F0805341
:103EF800002B03D0FFF704FA786114E0254B9B6D83
:103F0800244A43F080539365224B9B6D03F0805302
:103F1800FB60FB68FFF7F4F978611E4B9B6D1D4A47
:103F280023F0805393657B69B3F5007F0BD17B68E1
:103F3800802B19D97B68A02B02D902233B6113E09F
:103F480001233B6110E07B68802B02D903233B618E
:103F58000AE07B68802B02D102233B6104E07B6886
:103F6800702B01D101233B610B4B1B6823F0070227
:103F780009493B6913430B60074B1B6803F00703B0
:103F88003A699A4201D0012300E000231846183705
:103F9800BD4680BD001002400020024080B586B0BA
:103FA80000AF78600023FB740023BB747B681B6838
:103FB80003F40063002B3FD07B685B6EB3F5800F82
:103FC8001CD0B3F5800F02D8002B0ED01FE0B3F53C
:103FD800000F03D0B3F5400F1CD018E0854BDB6809
:103FE800844A43F48033D36015E07B6804330021AE
:103FF800184600F0B9FA0346FB740CE07B682033DE
:104008000021184600F0A0FB0346FB7403E00123DF
:10401800FB7400E000BFFB7C002B0BD1754BD3F881
:10402800883023F440027B685B6E72491343C1F801
:10403800883001E0FB7CBB747B681B6803F4805309
:10404800002B3FD07B689B6EB3F1807F1CD0B3F10F
:10405800807F02D8002B0ED01FE0B3F1007F03D081
:10406800B3F1407F1CD018E0624BDB68614A43F42F
:104078008033D36015E07B6804330021184600F0D4
:1040880073FA0346FB740CE07B6820330021184662
:1040980000F05AFB0346FB7403E00123FB7400E0C5
:1040A80000BFFB7C002B0BD1524BD3F8883023F098
:1040B80040727B689B6E4F491343C1F8883001E01A
:1040C800FB7CBB747B681B6803F40033002B00F097
:1040D800A08000237B74474B9B6D03F08053002B1B
:1040E80001D1012300E00023002B0DD0414B9B6D33
:1040F800404A43F0805393653E4B9B6D03F08053D9
:10410800BB60BB6801237B743B4B1B683A4A43F492
:1041180080731360FDF790F8F86009E0FDF78CF8FC
:104128000246FB68D31A022B02D90323FB7405E06D
:10413800314B1B6803F48073002BEFD0FB7C002B02
:104148005CD12C4BD3F8903003F440737B617B69CE
:10415800002B1FD07B68D3F884307A699A4219D033
:10416800244BD3F8903023F440737B61214BD3F870
:104178009030204A43F48033C2F890301D4BD3F876
:1041880090301C4A23F48033C2F89030194A7B6976
:10419800C2F890307B6903F00103002B16D0FDF7BD
:1041A8004BF8F8600BE0FDF747F80246FB68D31AB6
:1041B80041F28832934202D90323FB7406E00D4B87
:1041C800D3F8903003F00203002BECD0FB7C002BDB
:1041D8000CD1084BD3F8903023F440727B68D3F8A5
:1041E800843004491343C1F8903009E0FB7CBB7468
:1041F80006E000BF0010024000700040FB7CBB746A
:104208007B7C012B05D19E4B9B6D9D4A23F08053EF
:1042180093657B681B6803F00103002B0AD0984B59
:10422800D3F8883023F003027B689B6B94491343CF
:10423800C1F888307B681B6803F00203002B0AD0A2
:104248008F4BD3F8883023F00C027B68DB6B8C49EA
:104258001343C1F888307B681B6803F00403002B04
:104268000AD0874BD3F8883023F030027B681B6C68
:1042780083491343C1F888307B681B6803F008033F
:10428800002B0AD07E4BD3F8883023F0C0027B681D
:104298005B6C7B491343C1F888307B681B6803F06B
:1042A8001003002B0AD0764BD3F8883023F44072E1
:1042B8007B689B6C72491343C1F888307B681B6824
:1042C80003F02003002B0AD06D4BD3F8883023F479
:1042D80040627B68DB6C6A491343C1F888307B68AD
:1042E8001B6803F40073002B0AD0654BD3F88830A1
:1042F80023F440227B68DB6D61491343C1F88830A1
:104308007B681B6803F48063002B0AD05C4BD3F8EE
:10431800883023F440127B681B6E59491343C1F857
:1043280088307B681B6803F04003002B0AD0544B8D
:10433800D3F8883023F440527B681B6D50491343EF
:10434800C1F888307B681B6803F08003002B0AD013
:104358004B4BD3F8883023F440427B685B6D484967
:104368001343C1F888307B681B6803F48073002B03
:104378000AD0434BD3F8883023F440327B689B6DD6
:104388003F491343C1F888307B681B6803F4005326
:10439800002B28D03A4BD3F8883023F040627B6852
:1043A800DB6E37491343C1F888307B68DB6EB3F1A5
:1043B800006F06D1324BDB68314A43F48013D36077
:1043C80011E07B68DB6EB3F1806F0CD17B6804333E
:1043D8000121184600F0C8F80346FB74FB7C002B4B
:1043E80001D0FB7CBB747B681B6803F40023002BA3
:1043F80028D0234BD3F8883023F040627B681B6FAA
:104408001F491343C1F888307B681B6FB3F1006FF5
:1044180006D11B4BDB681A4A43F48013D36011E0C2
:104428007B681B6FB3F1806F0CD17B68043301216B
:10443800184600F099F80346FB74FB7C002B01D06A
:10444800FB7CBB747B681B6803F48023002B2BD098
:104458000B4BD3F8883023F040627B685B6F0849C8
:104468001343C1F888307B685B6FB3F1006F09D1E3
:10447800034BDB68024A43F48013D36014E000BFA7
:10448800001002407B685B6FB3F1806F0CD17B68D2
:1044980004330121184600F067F80346FB74FB7CDF
:1044A800002B01D0FB7CBB747B681B6803F4804342
:1044B800002B2FD02B4BD3F8883023F040527B6849
:1044C8009B6F28491343C1F888307B689B6FB3F111
:1044D800805F0DD17B6804330221184600F044F850
:1044E8000346FB74FB7C002B14D0FB7CBB7411E0EF
:1044F8007B689B6FB3F1005F0CD17B68203302218E
:10450800184600F021F90346FB74FB7C002B01D010
:10451800FB7CBB747B681B6803F40043002B0AD048
:10452800104BD3F8883023F080427B68DB6F0D494D
:104538001343C1F888307B681B6803F48033002B71
:104548000BD0084BD3F8883023F000427B68D3F8AF
:10455800803004491343C1F88830BB7C18461837AB
:10456800BD4680BD0010024080B584B000AF7860C1
:1045780039600023FB73734BDB6803F00303002BE4
:1045880018D0704BDB6803F003027B681B689A4203
:104598000DD17B681B68002B09D06A4BDB681B09AF
:1045A80003F007035A1C7B685B689A4244D00123D6
:1045B800FB7341E07B681B68022B0CD0032B13D0E4
:1045C800012B20D15F4B1B6803F00203002B1DD188
:1045D8000123FB731AE05B4B1B6803F48063002B19
:1045E80016D10123FB7313E0564B1B6803F4003309
:1045F800002B0FD1534B1B6803F48023002B09D1E8
:104608000123FB7306E00123FB7304E000BF02E013
:1046180000BF00E000BFFB7B002B0DD1494BDB68DE
:1046280023F073027B6819687B685B68013B1B0198
:104638000B4344491343CB60FB7B002B7DD1414B9B
:104648001B68404A23F080631360FCF7F5FDB860EF
:1046580009E0FCF7F1FD0246BB68D31A022B02D928
:104668000323FB7305E0374B1B6803F00063002B43
:10467800EFD1FB7B002B60D13B68002B11D1314B74
:104688001B6923F41F3323F440737A68926811027C
:104698007A68D268120952040A432A4913430B6103
:1046A80027E03B68012B12D1264B1B6923F4C0037A
:1046B80023F4FE437A68926811027A6812695208F4
:1046C800013A52050A431F4913430B6111E01D4B80
:1046D8001B6923F0C06323F4FE437A6892681102D1
:1046E8007A6852695208013A52060A431549134337
:1046F8000B61144B1B68134A43F080631360FCF78B
:104708009BFDB86009E0FCF797FD0246BB68D31A29
:10471800022B02D90323FB7305E00A4B1B6803F045
:104728000063002BEFD0FB7B002B06D1054B1A69E9
:104738007B689B69034913430B61FB7B1846103761
:10474800BD4680BD0010024080B584B000AF7860DF
:1047580039600023FB73684BDB6803F00303002B0D
:1047680018D0654BDB6803F003027B681B689A422C
:104778000DD17B681B68002B09D05F4BDB681B09D8
:1047880003F007035A1C7B685B689A4244D00123F4
:10479800FB7341E07B681B68022B0CD0032B13D002
:1047A800012B20D1544B1B6803F00203002B1DD1B1
:1047B8000123FB731AE0504B1B6803F48063002B42
:1047C80016D10123FB7313E04B4B1B6803F4003332
:1047D800002B0FD1484B1B6803F48023002B09D111
:1047E8000123FB7306E00123FB7304E000BF02E032
:1047F80000BF00E000BFFB7B002B0DD13E4BDB6808
:1048080023F073027B6819687B685B68013B1B01B6
:104818000B4339491343CB60FB7B002B67D1364BE5
:104828001B68354A23F080531360FCF705FDB86018
:1048380009E0FCF701FD0246BB68D31A022B02D936
:104848000323FB7305E02C4B1B6803F00053002B7C
:10485800EFD1FB7B002B4AD13B68002B11D1264BB3
:104868005B6923F41F3323F440737A68926811025A
:104878007A68D268120952040A431F4913434B61EC
:1048880011E01D4B5B6923F0C06323F4FE437A6893
:10489800926811027A6812695208013A52060A436C
:1048A800154913434B61144B1B68134A43F080535B
:1048B8001360FCF7C1FCB86009E0FCF7BDFC0246D8
:1048C800BB68D31A022B02D90323FB7305E00A4BFA
:1048D8001B6803F00053002BEFD0FB7B002B06D1A5
:1048E800054B5A697B685B69034913434B61FB7B42
:1048F80018461037BD4680BD0010024080B582B012
:1049080000AF78607B68002B01D101231DE07B6834
:1049180093F83D30DBB2002B06D17B68002283F888
:104928003C207868FCF7ACFA7B68022283F83D20CB
:104938007B681A687B6804331946104600F0DAF978
:104948007B68012283F83D20002318460837BD46BE
:1049580080BD000080B485B000AF78607B6802221B
:1049680083F83D207B681B689A680E4B1340FB60F8
:10497800FB68062B0BD0FB68B3F5803F07D07B683C
:104988001B681A687B681B6842F001021A607B6822
:10499800012283F83D20002318461437BD465DF8F0
:1049A800047B70470700010080B485B000AF7860D1
:1049B8007B681B68DA687B681B6842F00102DA6072
:1049C8007B681B689A680C4B1340FB60FB68062BDE
:1049D8000BD0FB68B3F5803F07D07B681B681A686B
:1049E8007B681B6842F001021A60002318461437DE
:1049F800BD465DF8047B70470700010080B483B0B2
:104A080000AF78607B681B68DA687B681B6822F0F7
:104A18000102DA607B681B681A6A41F211131340BD
:104A2800002B0FD17B681B681A6A40F2444313407D
:104A3800002B07D17B681B681A687B681B6822F00B
:104A480001021A60002318460C37BD465DF8047B46
:104A5800704780B582B000AF78607B681B681B69BF
:104A680003F00203022B22D17B681B68DB6803F08A
:104A78000203022B1BD17B681B686FF002021A61CC
:104A88007B6801221A777B681B689B6903F0030324
:104A9800002B03D0786800F00FF905E0786800F083
:104AA80001F9786800F012F97B6800221A777B68B0
:104AB8001B681B6903F00403042B22D17B681B6865
:104AC800DB6803F00403042B1BD17B681B686FF0C1
:104AD80004021A617B6802221A777B681B689B694B
:104AE80003F44073002B03D0786800F0E5F805E084
:104AF800786800F0D7F8786800F0E8F87B6800225A
:104B08001A777B681B681B6903F00803082B22D1FE
:104B18007B681B68DB6803F00803082B1BD17B68E4
:104B28001B686FF008021A617B6804221A777B6899
:104B38001B68DB6903F00303002B03D0786800F0DF
:104B4800BBF805E0786800F0ADF8786800F0BEF8CA
:104B58007B6800221A777B681B681B6903F01003C7
:104B6800102B22D17B681B68DB6803F01003102B25
:104B78001BD17B681B686FF010021A617B680822E2
:104B88001A777B681B68DB6903F44073002B03D03A
:104B9800786800F091F805E0786800F083F87868A4
:104BA80000F094F87B6800221A777B681B681B6901
:104BB80003F00103012B0ED17B681B68DB6803F04F
:104BC8000103012B07D17B681B686FF001021A6192
:104BD800786800F05DF87B681B681B6903F0800348
:104BE800802B0ED17B681B68DB6803F08003802B69
:104BF80007D17B681B686FF080021A61786800F043
:104C0800A5F97B681B681B6903F48073B3F5807F83
:104C18000ED17B681B68DB6803F08003802B07D10B
:104C28007B681B686FF480721A61786800F098F9E5
:104C38007B681B681B6903F04003402B0ED17B681F
:104C48001B68DB6803F04003402B07D17B681B68B7
:104C58006FF040021A61786800F042F87B681B68C0
:104C68001B6903F02003202B0ED17B681B68DB68CF
:104C780003F02003202B07D17B681B686FF020020C
:104C88001A61786800F058F900BF0837BD4680BD42
:104C980080B483B000AF786000BF0C37BD465DF8C4
:104CA800047B704780B483B000AF786000BF0C37D6
:104CB800BD465DF8047B704780B483B000AF786070
:104CC80000BF0C37BD465DF8047B704780B483B0E5
:104CD80000AF786000BF0C37BD465DF8047B7047B5
:104CE80080B483B000AF786000BF0C37BD465DF874
:104CF800047B704780B485B000AF786039607B680A
:104D08001B68FB607B68404A934213D07B68B3F111
:104D1800804F0FD07B683D4A93420BD07B683C4A5A
:104D2800934207D07B683B4A934203D07B683A4A58
:104D3800934208D1FB6823F07003FB603B685B6813
:104D4800FA681343FB607B682F4A93421FD07B6845
:104D5800B3F1804F1BD07B682C4A934217D07B68F5
:104D68002B4A934213D07B682A4A93420FD07B6820
:104D7800294A93420BD07B68284A934207D07B6824
:104D8800274A934203D07B68264A934208D1FB689E
:104D980023F44073FB603B68DB68FA681343FB60ED
:104DA800FB6823F080023B685B691343FB607B6808
:104DB800FA681A603B689A687B68DA623B681A6826
:104DC8007B689A627B68104A93420FD07B68124ACC
:104DD80093420BD07B68114A934207D07B68104AF4
:104DE800934203D07B680F4A934203D13B681A6908
:104DF8007B681A637B6801225A6100BF1437BD467D
:104E08005DF8047B704700BF002C0140000400409F
:104E180000080040000C0040003401400040014000
:104E2800004401400048014080B485B000AF78607C
:104E380039607B6893F83C30012B01D1022368E08C
:104E48007B68012283F83C207B68022283F83D209E
:104E58007B681B685B68FB607B681B689B68BB6042
:104E68007B681B682E4A934204D07B681B682D4AD6
:104E7800934208D1FB6823F47003FB603B685B68CE
:104E8800FA681343FB60FB6823F07003FB603B6820
:104E98001B68FA681343FB607B681B68FA685A60F2
:104EA8007B681B681E4A93421DD07B681B68B3F160
:104EB800804F18D07B681B681B4A934213D07B68CD
:104EC8001B681A4A93420ED07B681B68184A9342A3
:104ED80009D07B681B68134A934204D07B681B681F
:104EE800144A93420CD1BB6823F08003BB603B6833
:104EF8009B68BA681343BB607B681B68BA689A6092
:104F08007B68012283F83D207B68002283F83C20DF
:104F1800002318461437BD465DF8047B704700BF70
:104F2800002C01400034014000040040000800400B
:104F3800000C00400040014080B483B000AF7860AE
:104F480000BF0C37BD465DF8047B704780B483B062
:104F580000AF786000BF0C37BD465DF8047B704732
:104F680080B483B000AF786000BF0C37BD465DF8F1
:104F7800047B704780B582B000AF78607B68002BF7
:104F880001D1012340E07B685B6F002B06D17B6871
:104F9800002283F870207868FBF798FF7B6824224A
:104FA8005A677B681B681A687B681B6822F00102D5
:104FB8001A60786800F086F90346012B01D10123B5
:104FC80022E07B685B6A002B02D0786800F0ECFC7A
:104FD8007B681B685A687B681B6822F490425A6099
:104FE8007B681B689A687B681B6822F02A029A60B3
:104FF8007B681B681A687B681B6842F001021A60AC
:10500800786800F073FD034618460837BD4680BD32
:1050180080B588B000AF78607B681B68DB69FB618E
:105028007B681B681B68BB617B681B689B687B612E
:10503800FA6940F60F0313403B613B69002B13D11B
:10504800FB6903F02003002B0ED0BB6903F020039B
:10505800002B09D07B681B6E002B00F014817B6845
:105068001B6E786898470EE13B69002B00F0D680EC
:105078007B6903F00103002B05D1BB6903F490732E
:10508800002B00F0CB80FB6903F00103002B0ED04E
:10509800BB6903F48073002B09D07B681B6801226D
:1050A8001A627B68DB6F43F001027B68DA67FB6991
:1050B80003F00203002B0ED07B6903F00103002BE1
:1050C80009D07B681B6802221A627B68DB6F43F099
:1050D80004027B68DA67FB6903F00403002B0ED037
:1050E8007B6903F00103002B09D07B681B6804224D
:1050F8001A627B68DB6F43F002027B68DA67FB6940
:1051080003F00803002B13D0BB6903F02003002B26
:1051180004D17B6903F00103002B09D07B681B686D
:1051280008221A627B68DB6F43F008027B68DA6743
:10513800FB6903F40063002B0FD0BB6903F08063A5
:10514800002B0AD07B681B684FF400621A627B68E8
:10515800DB6F43F020027B68DA677B68DB6F002B2C
:1051680000F09380FB6903F02003002B0CD0BB698F
:1051780003F02003002B07D07B681B6E002B03D0A5
:105188007B681B6E786898477B68DB6FFB607B6881
:105198001B689B6803F04003402B04D0FB6803F0B6
:1051A8002803002B31D0786800F060FD7B681B680D
:1051B8009B6803F04003402B23D17B681B689A68E7
:1051C8007B681B6822F040029A607B68DB6E002BCC
:1051D80013D07B68DB6E304A9A637B68DB6E1846B7
:1051E800FDF78AFD0346002B16D07B68DB6E9B6BB0
:1051F8007A68D26E104698470EE0786800F058F842
:105208000AE0786800F054F806E0786800F050F892
:105218007B680022DA6738E000BF36E0FB6903F4F8
:105228008013002B0DD07B6903F48003002B08D07A
:105238007B681B684FF480121A62786800F065FD7D
:1052480026E0FB6903F08003002B0DD0BB6903F057
:105258008003002B08D07B685B6E002B17D07B681F
:105268005B6E7868984712E0FB6903F04003002BF7
:105278000ED0BB6903F04003002B09D0786800F01A
:105288002BFD00BF04E000BF02E000BF00E000BF4C
:105298002037BD4680BD00BFB55C000880B483B030
:1052A80000AF786000BF0C37BD465DF8047B7047DF
:1052B80080B483B000AF786000BF0C37BD465DF89E
:1052C800047B70472DE990488AB000AF78600023CE
:1052D800FB610023FB7600237B617B689A687B680F
:1052E8001B691A437B685B691A437B68DB69134354
:1052F8007B627B681B681A68B84B13407A6812682F
:10530800796A0B4313607B681B685B6823F4405120
:105318007B68DA687B681B680A435A607B689B690C
:105328007B627B681B68AE4A934204D07B681B6A29
:105338007A6A13437B627B681B689B6823F430613D
:105348007B681B687A6A0A439A607B681B68A54A6F
:10535800934226D1A44BD3F8883003F00303032BE0
:105368001AD801A252F823F081530008915300087B
:105378008953000899530008012387F8233005E171
:10538800022387F8233001E1042387F82330FDE066
:10539800082387F82330F9E0102387F8233000BF6B
:1053A800F4E07B681B68914A934238D18E4BD3F85E
:1053B800883003F00C030C2B2CD801A252F823F0F0
:1053C800FD5300081D5400081D5400081D54000812
:1053D8000D5400081D5400081D5400081D540008F1
:1053E800055400081D5400081D5400081D540008E9
:1053F80015540008002387F82330C7E0022387F8F4
:105408002330C3E0042387F82330BFE0082387F85C
:105418002330BBE0102387F8233000BFB6E07B6859
:105428001B68734A934225D16F4BD3F8883003F039
:105438003003102B11D0102B02D8002B05D014E00C
:10544800202B06D0302B0CD00FE0002387F8233018
:105458009CE0022387F8233098E0042387F8233060
:1054680094E0082387F8233090E0102387F823304E
:1054780000BF8BE07B681B685E4A934225D15A4B7C
:10548800D3F8883003F0C003402B11D0402B02D84A
:10549800002B05D014E0802B06D0C02B0CD00FE0D9
:1054A800002387F8233071E0022387F823306DE06A
:1054B800042387F8233069E0082387F8233065E060
:1054C800102387F8233000BF60E07B681B684A4AD6
:1054D800934229D1444BD3F8883003F44073B3F591
:1054E800807F14D0B3F5807F02D8002B07D016E058
:1054F800B3F5007F07D0B3F5407F0CD00FE0002351
:1055080087F8233042E0022387F823303EE0042363
:1055180087F823303AE0082387F8233036E0102351
:1055280087F8233000BF31E07B681B682C4A934220
:1055380029D12D4BD3F8883003F44063B3F5806F3D
:1055480014D0B3F5806F02D8002B07D016E0B3F55E
:10555800006F07D0B3F5406F0CD00FE0002387F839
:10556800233013E0022387F823300FE0042387F861
:1055780023300BE0082387F8233007E0102387F84F
:10558800233000BF02E0102387F823307B681B68B4
:10559800134A934240F0FE8097F82330082B37D8FF
:1055A80001A252F823F000BFD5550008195600088B
:1055B800DD55000819560008095600081956000854
:1055C800195600081956000811560008FEF75AFC2B
:1055D800786120E0094B7B611DE000BFF369FFEFB4
:1055E80000800040003801400010024000440040A4
:1055F80000480040004C0040005000400024F400E7
:10560800FEF7AAFB786106E04FF400437B6102E0F5
:105618000123FB7600BF7B69002B00F0B9817B6812
:105628005A6813465B0013447A699A4205D37B682B
:105638005B681B037A699A4202D90123FB76A7E1CA
:1056480097F82330082B00F2928001A252F823F039
:105658007D56000877570008CB5600087757000892
:10566800FF56000877570008775700087757000853
:105678004D570008FEF706FC38613B6919464FF0A4
:1056880000024FF000034FF00004140244EA1164D2
:105698000B027A685268520811464FF0000213EB69
:1056A800010B44EB020C584661467B685B684FF07F
:1056B80000041A462346FAF783FD03460C46FB61AD
:1056C80058E07B685B685B084FF00004AE494FF018
:1056D800000213EB010B44EB020C584661467B6851
:1056E8005B684FF000041A462346FAF769FD034643
:1056F8000C46FB613EE0FEF72FFB38613B6919461B
:105708004FF000024FF000034FF00004140244EA87
:1057180011640B027A685268520811464FF0000271
:1057280013EB010B44EB020C584661467B685B683F
:105738004FF000041A462346FAF742FD03460C468A
:10574800FB6117E07B685B685B084FF0000413F5AA
:10575800000044F100017B685B684FF000041A46C2
:105768002346FAF72DFD03460C46FB6102E00123B0
:10577800FB7600BFFB69B3F5407F08D3FB69B3F53F
:10578800801F04D27B681B68FA69DA6000E1012394
:10579800FB76FDE07B68DB69B3F5004F40F0848061
:1057A80097F82330082B5FD801A252F823F000BFE6
:1057B800DD570008FD5700081D58000871580008FB
:1057C80039580008715800087158000871580008C5
:1057D80059580008FEF756FB38613B695A007B6848
:1057E8005B685B081A447B685B68B2FBF3F39BB2A7
:1057F800FB613CE0FEF75CFB38613B695A007B6863
:105808005B685B081A447B685B68B2FBF3F39BB286
:10581800FB612CE07B685B685B0803F1F47303F5BC
:1058280090437A685268B3FBF2F39BB2FB611EE0C7
:10583800FEF792FA38613B695A007B685B685B083F
:105848001A447B685B68B2FBF3F39BB2FB610EE022
:105858007B685B685B0803F580327B685B68B2FB3A
:10586800F3F39BB2FB6102E00123FB7600BFFB6907
:105878000F2B16D9FB69B3F5803F12D2FB699BB297
:1058880023F00F03FB81FB695B089BB203F007035E
:105898009AB2FB891343FB817B681B68FA89DA603B
:1058A80076E00123FB7673E097F82330082B5CD869
:1058B80001A252F823F000BFE55800080359000878
:1058C80021590008735900083D5900087359000808
:1058D80073590008735900085B590008FEF7D2FA9B
:1058E80038617B685B685A083B691A447B685B6867
:1058F800B2FBF3F39BB2FB613AE0FEF7D9FA3861E9
:105908007B685B685A083B691A447B685B68B2FB32
:10591800F3F39BB2FB612BE07B685B685B0803F5E4
:10592800740303F510537A685268B3FBF2F39BB221
:10593800FB611DE0FEF710FA38617B685B685A0866
:105948003B691A447B685B68B2FBF3F39BB2FB616B
:105958000EE07B685B685B0803F500427B685B6868
:10596800B2FBF3F39BB2FB6102E00123FB7600BFBD
:10597800FB690F2B0AD9FB69B3F5803F06D27B6818
:105988001B68FA69DA6003E0000024F40123FB765F
:105998007B6800221A667B6800225A66FB7E1846DE
:1059A8002837BD46BDE8908880B483B000AF7860E2
:1059B8007B685B6A03F00103002B0AD07B681B68D5
:1059C8005B6823F400317B689A6A7B681B680A432A
:1059D8005A607B685B6A03F00203002B0AD07B687D
:1059E8001B685B6823F480317B68DA6A7B681B6814
:1059F8000A435A607B685B6A03F00403002B0AD0F1
:105A08007B681B685B6823F480217B681A6B7B6862
:105A18001B680A435A607B685B6A03F00803002B23
:105A28000AD07B681B685B6823F400417B685A6B6B
:105A38007B681B680A435A607B685B6A03F0100343
:105A4800002B0AD07B681B689B6823F480517B6815
:105A58009A6B7B681B680A439A607B685B6A03F0F1
:105A68002003002B0AD07B681B689B6823F4005135
:105A78007B68DA6B7B681B680A439A607B685B6AA1
:105A880003F04003002B1AD07B681B685B6823F483
:105A980080117B681A6C7B681B680A435A607B68B4
:105AA8001B6CB3F5801F0AD17B681B685B6823F405
:105AB800C0017B685A6C7B681B680A435A607B6824
:105AC8005B6A03F08003002B0AD07B681B685B6865
